{
  "_format": "hh-sol-artifact-1",
  "contractName": "shoe",
  "sourceName": "contracts/shoe.sol",
  "abi": [
    {
      "inputs": [],
      "stateMutability": "nonpayable",
      "type": "constructor"
    },
    {
      "inputs": [
        {
          "internalType": "string",
          "name": "message",
          "type": "string"
        },
        {
          "internalType": "uint256",
          "name": "price",
          "type": "uint256"
        }
      ],
      "name": "buyShoe",
      "outputs": [],
      "stateMutability": "payable",
      "type": "function"
    },
    {
      "inputs": [],
      "name": "getMemos",
      "outputs": [
        {
          "components": [
            {
              "internalType": "string",
              "name": "message",
              "type": "string"
            },
            {
              "internalType": "uint256",
              "name": "price",
              "type": "uint256"
            },
            {
              "internalType": "uint256",
              "name": "timestamp",
              "type": "uint256"
            },
            {
              "internalType": "address",
              "name": "from",
              "type": "address"
            }
          ],
          "internalType": "struct shoe.Memo[]",
          "name": "",
          "type": "tuple[]"
        }
      ],
      "stateMutability": "view",
      "type": "function"
    }
  ],
  "bytecode": "0x608060405234801561001057600080fd5b5033600160006101000a81548173ffffffffffffffffffffffffffffffffffffffff021916908373ffffffffffffffffffffffffffffffffffffffff160217905550610a86806100616000396000f3fe6080604052600436106100295760003560e01c8063865c51721461002e578063afed9fed14610059575b600080fd5b34801561003a57600080fd5b50610043610075565b60405161005091906105a9565b60405180910390f35b610073600480360381019061006e9190610666565b6101d0565b005b60606000805480602002602001604051908101604052809291908181526020016000905b828210156101c757838290600052602060002090600402016040518060800160405290816000820180546100cc906106f5565b80601f01602080910402602001604051908101604052809291908181526020018280546100f8906106f5565b80156101455780601f1061011a57610100808354040283529160200191610145565b820191906000526020600020905b81548152906001019060200180831161012857829003601f168201915b5050505050815260200160018201548152602001600282015481526020016003820160009054906101000a900473ffffffffffffffffffffffffffffffffffffffff1673ffffffffffffffffffffffffffffffffffffffff1673ffffffffffffffffffffffffffffffffffffffff168152505081526020019060010190610099565b50505050905090565b80341015610213576040517f08c379a000000000000000000000000000000000000000000000000000000000815260040161020a90610783565b60405180910390fd5b600160009054906101000a900473ffffffffffffffffffffffffffffffffffffffff1673ffffffffffffffffffffffffffffffffffffffff166108fc349081150290604051600060405180830381858888f1935050505015801561027b573d6000803e3d6000fd5b506000604051806080016040528085858080601f016020809104026020016040519081016040528093929190818152602001838380828437600081840152601f19601f8201169050808301925050505050505081526020018381526020014281526020013373ffffffffffffffffffffffffffffffffffffffff1681525090806001815401808255809150506001900390600052602060002090600402016000909190919091506000820151816000019081610337919061097e565b50602082015181600101556040820151816002015560608201518160030160006101000a81548173ffffffffffffffffffffffffffffffffffffffff021916908373ffffffffffffffffffffffffffffffffffffffff1602179055505050505050565b600081519050919050565b600082825260208201905092915050565b6000819050602082019050919050565b600081519050919050565b600082825260208201905092915050565b60005b838110156104005780820151818401526020810190506103e5565b60008484015250505050565b6000601f19601f8301169050919050565b6000610428826103c6565b61043281856103d1565b93506104428185602086016103e2565b61044b8161040c565b840191505092915050565b6000819050919050565b61046981610456565b82525050565b600073ffffffffffffffffffffffffffffffffffffffff82169050919050565b600061049a8261046f565b9050919050565b6104aa8161048f565b82525050565b600060808301600083015184820360008601526104cd828261041d565b91505060208301516104e26020860182610460565b5060408301516104f56040860182610460565b50606083015161050860608601826104a1565b508091505092915050565b600061051f83836104b0565b905092915050565b6000602082019050919050565b600061053f8261039a565b61054981856103a5565b93508360208202850161055b856103b6565b8060005b8581101561059757848403895281516105788582610513565b945061058383610527565b925060208a0199505060018101905061055f565b50829750879550505050505092915050565b600060208201905081810360008301526105c38184610534565b905092915050565b600080fd5b600080fd5b600080fd5b600080fd5b600080fd5b60008083601f8401126105fa576105f96105d5565b5b8235905067ffffffffffffffff811115610617576106166105da565b5b602083019150836001820283011115610633576106326105df565b5b9250929050565b61064381610456565b811461064e57600080fd5b50565b6000813590506106608161063a565b92915050565b60008060006040848603121561067f5761067e6105cb565b5b600084013567ffffffffffffffff81111561069d5761069c6105d0565b5b6106a9868287016105e4565b935093505060206106bc86828701610651565b9150509250925092565b7f4e487b7100000000000000000000000000000000000000000000000000000000600052602260045260246000fd5b6000600282049050600182168061070d57607f821691505b6020821081036107205761071f6106c6565b5b50919050565b600082825260208201905092915050565b7f506c656173652070617920746865207265717569726564206574686572000000600082015250565b600061076d601d83610726565b915061077882610737565b602082019050919050565b6000602082019050818103600083015261079c81610760565b9050919050565b7f4e487b7100000000000000000000000000000000000000000000000000000000600052604160045260246000fd5b60008190508160005260206000209050919050565b60006020601f8301049050919050565b600082821b905092915050565b6000600883026108347fffffffffffffffffffffffffffffffffffffffffffffffffffffffffffffffff826107f7565b61083e86836107f7565b95508019841693508086168417925050509392505050565b6000819050919050565b600061087b61087661087184610456565b610856565b610456565b9050919050565b6000819050919050565b61089583610860565b6108a96108a182610882565b848454610804565b825550505050565b600090565b6108be6108b1565b6108c981848461088c565b505050565b5b818110156108ed576108e26000826108b6565b6001810190506108cf565b5050565b601f82111561093257610903816107d2565b61090c846107e7565b8101602085101561091b578190505b61092f610927856107e7565b8301826108ce565b50505b505050565b600082821c905092915050565b600061095560001984600802610937565b1980831691505092915050565b600061096e8383610944565b9150826002028217905092915050565b610987826103c6565b67ffffffffffffffff8111156109a05761099f6107a3565b5b6109aa82546106f5565b6109b58282856108f1565b600060209050601f8311600181146109e857600084156109d6578287015190505b6109e08582610962565b865550610a48565b601f1984166109f6866107d2565b60005b82811015610a1e578489015182556001820191506020850194506020810190506109f9565b86831015610a3b5784890151610a37601f891682610944565b8355505b6001600288020188555050505b50505050505056fea2646970667358221220f159d5977ee6ee3cd5bbb8d730f0d012f1c8847eccef7ba5d5432e45e494268d64736f6c63430008120033",
  "linkReferences": {},
  "deployedLinkReferences": {}
}